{
  "contractName": "BasicWallet",
  "abi": [
    {
      "anonymous": false,
      "inputs": [
        {
          "indexed": true,
          "internalType": "address",
          "name": "user",
          "type": "address"
        },
        {
          "indexed": false,
          "internalType": "uint256",
          "name": "amount",
          "type": "uint256"
        }
      ],
      "name": "Deposited",
      "type": "event"
    },
    {
      "anonymous": false,
      "inputs": [
        {
          "indexed": true,
          "internalType": "address",
          "name": "from",
          "type": "address"
        },
        {
          "indexed": true,
          "internalType": "address",
          "name": "to",
          "type": "address"
        },
        {
          "indexed": false,
          "internalType": "uint256",
          "name": "amount",
          "type": "uint256"
        }
      ],
      "name": "Transferred",
      "type": "event"
    },
    {
      "anonymous": false,
      "inputs": [
        {
          "indexed": true,
          "internalType": "address",
          "name": "user",
          "type": "address"
        },
        {
          "indexed": false,
          "internalType": "uint256",
          "name": "amount",
          "type": "uint256"
        }
      ],
      "name": "Withdrawn",
      "type": "event"
    },
    {
      "inputs": [],
      "name": "deposit",
      "outputs": [],
      "stateMutability": "payable",
      "type": "function",
      "payable": true
    },
    {
      "inputs": [
        {
          "internalType": "uint256",
          "name": "amount",
          "type": "uint256"
        }
      ],
      "name": "withdraw",
      "outputs": [],
      "stateMutability": "nonpayable",
      "type": "function"
    },
    {
      "inputs": [
        {
          "internalType": "address",
          "name": "to",
          "type": "address"
        },
        {
          "internalType": "uint256",
          "name": "amount",
          "type": "uint256"
        }
      ],
      "name": "transferTo",
      "outputs": [],
      "stateMutability": "nonpayable",
      "type": "function"
    },
    {
      "inputs": [],
      "name": "getMyBalance",
      "outputs": [
        {
          "internalType": "uint256",
          "name": "",
          "type": "uint256"
        }
      ],
      "stateMutability": "view",
      "type": "function",
      "constant": true
    },
    {
      "inputs": [
        {
          "internalType": "address",
          "name": "user",
          "type": "address"
        }
      ],
      "name": "balanceOf",
      "outputs": [
        {
          "internalType": "uint256",
          "name": "",
          "type": "uint256"
        }
      ],
      "stateMutability": "view",
      "type": "function",
      "constant": true
    }
  ],
  "bytecode": "0x60806040526001805534801561001457600080fd5b50610b50806100246000396000f3fe60806040526004361061004a5760003560e01c80632ccb1b301461004f5780632e1a7d4d146100785780634c738909146100a157806370a08231146100cc578063d0e30db014610109575b600080fd5b34801561005b57600080fd5b506100766004803603810190610071919061074c565b610113565b005b34801561008457600080fd5b5061009f600480360381019061009a919061078c565b610316565b005b3480156100ad57600080fd5b506100b661053d565b6040516100c391906107c8565b60405180910390f35b3480156100d857600080fd5b506100f360048036038101906100ee91906107e3565b610583565b60405161010091906107c8565b60405180910390f35b6101116105cb565b005b806000803373ffffffffffffffffffffffffffffffffffffffff1673ffffffffffffffffffffffffffffffffffffffff168152602001908152602001600020541015610194576040517f08c379a000000000000000000000000000000000000000000000000000000000815260040161018b9061086d565b60405180910390fd5b600073ffffffffffffffffffffffffffffffffffffffff168273ffffffffffffffffffffffffffffffffffffffff1603610203576040517f08c379a00000000000000000000000000000000000000000000000000000000081526004016101fa906108d9565b60405180910390fd5b806000803373ffffffffffffffffffffffffffffffffffffffff1673ffffffffffffffffffffffffffffffffffffffff16815260200190815260200160002060008282546102519190610928565b92505081905550806000808473ffffffffffffffffffffffffffffffffffffffff1673ffffffffffffffffffffffffffffffffffffffff16815260200190815260200160002060008282546102a6919061095c565b925050819055508173ffffffffffffffffffffffffffffffffffffffff163373ffffffffffffffffffffffffffffffffffffffff167fd1ba4ac2e2a11b5101f6cb4d978f514a155b421e8ec396d2d9abaf0bb02917ee8360405161030a91906107c8565b60405180910390a35050565b600180541461035a576040517f08c379a0000000000000000000000000000000000000000000000000000000008152600401610351906109dc565b60405180910390fd5b6000600181905550806000803373ffffffffffffffffffffffffffffffffffffffff1673ffffffffffffffffffffffffffffffffffffffff1681526020019081526020016000205410156103e3576040517f08c379a00000000000000000000000000000000000000000000000000000000081526004016103da9061086d565b60405180910390fd5b806000803373ffffffffffffffffffffffffffffffffffffffff1673ffffffffffffffffffffffffffffffffffffffff16815260200190815260200160002060008282546104319190610928565b9250508190555060003373ffffffffffffffffffffffffffffffffffffffff168260405161045e90610a2d565b60006040518083038185875af1925050503d806000811461049b576040519150601f19603f3d011682016040523d82523d6000602084013e6104a0565b606091505b50509050806104e4576040517f08c379a00000000000000000000000000000000000000000000000000000000081526004016104db90610a8e565b60405180910390fd5b3373ffffffffffffffffffffffffffffffffffffffff167f7084f5476618d8e60b11ef0d7d3f06914655adb8793e28ff7f018d4c76d505d58360405161052a91906107c8565b60405180910390a2506001808190555050565b60008060003373ffffffffffffffffffffffffffffffffffffffff1673ffffffffffffffffffffffffffffffffffffffff16815260200190815260200160002054905090565b60008060008373ffffffffffffffffffffffffffffffffffffffff1673ffffffffffffffffffffffffffffffffffffffff168152602001908152602001600020549050919050565b6000341161060e576040517f08c379a000000000000000000000000000000000000000000000000000000000815260040161060590610afa565b60405180910390fd5b346000803373ffffffffffffffffffffffffffffffffffffffff1673ffffffffffffffffffffffffffffffffffffffff168152602001908152602001600020600082825461065c919061095c565b925050819055503373ffffffffffffffffffffffffffffffffffffffff167f2da466a7b24304f47e87fa2e1e5a81b9831ce54fec19055ce277ca2f39ba42c4346040516106a991906107c8565b60405180910390a2565b600080fd5b600073ffffffffffffffffffffffffffffffffffffffff82169050919050565b60006106e3826106b8565b9050919050565b6106f3816106d8565b81146106fe57600080fd5b50565b600081359050610710816106ea565b92915050565b6000819050919050565b61072981610716565b811461073457600080fd5b50565b60008135905061074681610720565b92915050565b60008060408385031215610763576107626106b3565b5b600061077185828601610701565b925050602061078285828601610737565b9150509250929050565b6000602082840312156107a2576107a16106b3565b5b60006107b084828501610737565b91505092915050565b6107c281610716565b82525050565b60006020820190506107dd60008301846107b9565b92915050565b6000602082840312156107f9576107f86106b3565b5b600061080784828501610701565b91505092915050565b600082825260208201905092915050565b7f4e6f7420656e6f7567682062616c616e63650000000000000000000000000000600082015250565b6000610857601283610810565b915061086282610821565b602082019050919050565b600060208201905081810360008301526108868161084a565b9050919050565b7f496e76616c696420616464726573730000000000000000000000000000000000600082015250565b60006108c3600f83610810565b91506108ce8261088d565b602082019050919050565b600060208201905081810360008301526108f2816108b6565b9050919050565b7f4e487b7100000000000000000000000000000000000000000000000000000000600052601160045260246000fd5b600061093382610716565b915061093e83610716565b9250828203905081811115610956576109556108f9565b5b92915050565b600061096782610716565b915061097283610716565b925082820190508082111561098a576109896108f9565b5b92915050565b7f5265656e7472616e742063616c6c000000000000000000000000000000000000600082015250565b60006109c6600e83610810565b91506109d182610990565b602082019050919050565b600060208201905081810360008301526109f5816109b9565b9050919050565b600081905092915050565b50565b6000610a176000836109fc565b9150610a2282610a07565b600082019050919050565b6000610a3882610a0a565b9150819050919050565b7f4661696c656420746f2073656e64204574686572000000000000000000000000600082015250565b6000610a78601483610810565b9150610a8382610a42565b602082019050919050565b60006020820190508181036000830152610aa781610a6b565b9050919050565b7f4d7573742073656e642045544800000000000000000000000000000000000000600082015250565b6000610ae4600d83610810565b9150610aef82610aae565b602082019050919050565b60006020820190508181036000830152610b1381610ad7565b905091905056fea26469706673582212203160580fdc57af75f7df6ea8cfe37c1bc2ebe27c7fb89623bb36b2ff68131f0164736f6c63430008110033",
  "immutableReferences": {},
  "source": "// SPDX-License-Identifier: MIT\r\npragma solidity ^0.8.17;\r\ncontract BasicWallet {\r\n    mapping(address => uint256) private balances;\r\n\r\n    event Deposited(address indexed user, uint256 amount);\r\n    event Withdrawn(address indexed user, uint256 amount);\r\n    event Transferred(address indexed from, address indexed to, uint256 amount);\r\n\r\n    uint256 private unlocked = 1;\r\n    modifier lock() {\r\n        require(unlocked == 1, \"Reentrant call\");\r\n        unlocked = 0;\r\n        _;\r\n        unlocked = 1;\r\n    }\r\n\r\n    function deposit() external payable {\r\n        require(msg.value > 0, \"Must send ETH\");\r\n        balances[msg.sender] += msg.value;\r\n        emit Deposited(msg.sender, msg.value);\r\n    }\r\n\r\n    function withdraw(uint256 amount) external lock {\r\n        require(balances[msg.sender] >= amount, \"Not enough balance\");\r\n        balances[msg.sender] -= amount;\r\n        (bool sent, ) = payable(msg.sender).call{value: amount}(\"\");\r\n        require(sent, \"Failed to send Ether\");\r\n        emit Withdrawn(msg.sender, amount);\r\n    }\r\n\r\n    function transferTo(address to, uint256 amount) external {\r\n        require(balances[msg.sender] >= amount, \"Not enough balance\");\r\n        require(to != address(0), \"Invalid address\");\r\n        balances[msg.sender] -= amount;\r\n        balances[to] += amount;\r\n        emit Transferred(msg.sender, to, amount);\r\n    }\r\n\r\n    function getMyBalance() external view returns (uint256) {\r\n        return balances[msg.sender];\r\n    }\r\n\r\n    function balanceOf(address user) external view returns (uint256) {\r\n        return balances[user];\r\n    }\r\n}\r\n",
  "sourcePath": "D:\\basic-wallet\\contracts\\BasicWallet.sol",
  "compiler": {
    "name": "solc",
    "version": "0.8.17+commit.8df45f5f.Emscripten.clang"
  },
  "schemaVersion": "3.4.16",
  "updatedAt": "2025-12-09T09:05:32.250Z",
  "networkType": "ethereum",
  "devdoc": {
    "kind": "dev",
    "methods": {},
    "version": 1
  },
  "userdoc": {
    "kind": "user",
    "methods": {},
    "version": 1
  }
}